{
  "_format": "hh-sol-artifact-1",
  "contractName": "MilestoneEscrow",
  "sourceName": "contracts/MilestoneEscrow.sol",
  "abi": [
    {
      "inputs": [
        {
          "internalType": "address payable",
          "name": "_freelancer",
          "type": "address"
        },
        {
          "internalType": "address[]",
          "name": "_approvers",
          "type": "address[]"
        },
        {
          "internalType": "uint256",
          "name": "_approvalThreshold",
          "type": "uint256"
        },
        {
          "internalType": "string[]",
          "name": "_descriptions",
          "type": "string[]"
        },
        {
          "internalType": "uint256[]",
          "name": "_amounts",
          "type": "uint256[]"
        }
      ],
      "stateMutability": "payable",
      "type": "constructor"
    },
    {
      "inputs": [],
      "name": "ReentrancyGuardReentrantCall",
      "type": "error"
    },
    {
      "anonymous": false,
      "inputs": [
        {
          "indexed": true,
          "internalType": "address",
          "name": "client",
          "type": "address"
        },
        {
          "indexed": false,
          "internalType": "uint256",
          "name": "totalAmount",
          "type": "uint256"
        }
      ],
      "name": "ContractFunded",
      "type": "event"
    },
    {
      "anonymous": false,
      "inputs": [
        {
          "indexed": true,
          "internalType": "uint256",
          "name": "milestoneId",
          "type": "uint256"
        },
        {
          "indexed": true,
          "internalType": "address",
          "name": "freelancer",
          "type": "address"
        },
        {
          "indexed": false,
          "internalType": "string",
          "name": "response",
          "type": "string"
        }
      ],
      "name": "DisputeResponded",
      "type": "event"
    },
    {
      "anonymous": false,
      "inputs": [
        {
          "indexed": true,
          "internalType": "uint256",
          "name": "milestoneId",
          "type": "uint256"
        },
        {
          "indexed": true,
          "internalType": "address",
          "name": "approver",
          "type": "address"
        },
        {
          "indexed": false,
          "internalType": "uint256",
          "name": "approvalCount",
          "type": "uint256"
        }
      ],
      "name": "MilestoneApproved",
      "type": "event"
    },
    {
      "anonymous": false,
      "inputs": [
        {
          "indexed": true,
          "internalType": "uint256",
          "name": "milestoneId",
          "type": "uint256"
        },
        {
          "indexed": true,
          "internalType": "address",
          "name": "raisedBy",
          "type": "address"
        },
        {
          "indexed": false,
          "internalType": "string",
          "name": "reason",
          "type": "string"
        }
      ],
      "name": "MilestoneDisputed",
      "type": "event"
    },
    {
      "anonymous": false,
      "inputs": [
        {
          "indexed": true,
          "internalType": "uint256",
          "name": "milestoneId",
          "type": "uint256"
        },
        {
          "indexed": true,
          "internalType": "address",
          "name": "freelancer",
          "type": "address"
        },
        {
          "indexed": false,
          "internalType": "uint256",
          "name": "amount",
          "type": "uint256"
        }
      ],
      "name": "MilestonePaid",
      "type": "event"
    },
    {
      "anonymous": false,
      "inputs": [
        {
          "indexed": true,
          "internalType": "uint256",
          "name": "milestoneId",
          "type": "uint256"
        },
        {
          "indexed": true,
          "internalType": "address",
          "name": "client",
          "type": "address"
        },
        {
          "indexed": false,
          "internalType": "uint256",
          "name": "amount",
          "type": "uint256"
        }
      ],
      "name": "MilestoneRefunded",
      "type": "event"
    },
    {
      "anonymous": false,
      "inputs": [
        {
          "indexed": true,
          "internalType": "uint256",
          "name": "milestoneId",
          "type": "uint256"
        },
        {
          "indexed": false,
          "internalType": "uint256",
          "name": "submissionVersion",
          "type": "uint256"
        },
        {
          "indexed": false,
          "internalType": "string",
          "name": "proofURI",
          "type": "string"
        },
        {
          "indexed": false,
          "internalType": "string",
          "name": "response",
          "type": "string"
        }
      ],
      "name": "MilestoneResubmitted",
      "type": "event"
    },
    {
      "anonymous": false,
      "inputs": [
        {
          "indexed": true,
          "internalType": "uint256",
          "name": "milestoneId",
          "type": "uint256"
        },
        {
          "indexed": false,
          "internalType": "uint256",
          "name": "submissionVersion",
          "type": "uint256"
        },
        {
          "indexed": false,
          "internalType": "string",
          "name": "proofURI",
          "type": "string"
        }
      ],
      "name": "MilestoneSubmitted",
      "type": "event"
    },
    {
      "inputs": [],
      "name": "approvalThreshold",
      "outputs": [
        {
          "internalType": "uint256",
          "name": "",
          "type": "uint256"
        }
      ],
      "stateMutability": "view",
      "type": "function"
    },
    {
      "inputs": [
        {
          "internalType": "uint256",
          "name": "milestoneId",
          "type": "uint256"
        }
      ],
      "name": "approveMilestone",
      "outputs": [],
      "stateMutability": "nonpayable",
      "type": "function"
    },
    {
      "inputs": [],
      "name": "client",
      "outputs": [
        {
          "internalType": "address",
          "name": "",
          "type": "address"
        }
      ],
      "stateMutability": "view",
      "type": "function"
    },
    {
      "inputs": [],
      "name": "createdAt",
      "outputs": [
        {
          "internalType": "uint256",
          "name": "",
          "type": "uint256"
        }
      ],
      "stateMutability": "view",
      "type": "function"
    },
    {
      "inputs": [],
      "name": "freelancer",
      "outputs": [
        {
          "internalType": "address payable",
          "name": "",
          "type": "address"
        }
      ],
      "stateMutability": "view",
      "type": "function"
    },
    {
      "inputs": [],
      "name": "getApprovers",
      "outputs": [
        {
          "internalType": "address[]",
          "name": "",
          "type": "address[]"
        }
      ],
      "stateMutability": "view",
      "type": "function"
    },
    {
      "inputs": [],
      "name": "getContractBalance",
      "outputs": [
        {
          "internalType": "uint256",
          "name": "",
          "type": "uint256"
        }
      ],
      "stateMutability": "view",
      "type": "function"
    },
    {
      "inputs": [
        {
          "internalType": "uint256",
          "name": "milestoneId",
          "type": "uint256"
        },
        {
          "internalType": "uint256",
          "name": "disputeId",
          "type": "uint256"
        }
      ],
      "name": "getDispute",
      "outputs": [
        {
          "internalType": "address",
          "name": "raisedBy",
          "type": "address"
        },
        {
          "internalType": "string",
          "name": "reason",
          "type": "string"
        },
        {
          "internalType": "string",
          "name": "freelancerResponse",
          "type": "string"
        },
        {
          "internalType": "bool",
          "name": "resolved",
          "type": "bool"
        },
        {
          "internalType": "uint256",
          "name": "timestamp",
          "type": "uint256"
        }
      ],
      "stateMutability": "view",
      "type": "function"
    },
    {
      "inputs": [
        {
          "internalType": "uint256",
          "name": "milestoneId",
          "type": "uint256"
        }
      ],
      "name": "getDisputeCount",
      "outputs": [
        {
          "internalType": "uint256",
          "name": "",
          "type": "uint256"
        }
      ],
      "stateMutability": "view",
      "type": "function"
    },
    {
      "inputs": [
        {
          "internalType": "uint256",
          "name": "milestoneId",
          "type": "uint256"
        }
      ],
      "name": "getLatestDispute",
      "outputs": [
        {
          "internalType": "bool",
          "name": "exists",
          "type": "bool"
        },
        {
          "internalType": "address",
          "name": "raisedBy",
          "type": "address"
        },
        {
          "internalType": "string",
          "name": "reason",
          "type": "string"
        },
        {
          "internalType": "string",
          "name": "freelancerResponse",
          "type": "string"
        },
        {
          "internalType": "bool",
          "name": "resolved",
          "type": "bool"
        },
        {
          "internalType": "uint256",
          "name": "timestamp",
          "type": "uint256"
        }
      ],
      "stateMutability": "view",
      "type": "function"
    },
    {
      "inputs": [
        {
          "internalType": "uint256",
          "name": "milestoneId",
          "type": "uint256"
        }
      ],
      "name": "getMilestone",
      "outputs": [
        {
          "internalType": "string",
          "name": "description",
          "type": "string"
        },
        {
          "internalType": "uint256",
          "name": "amount",
          "type": "uint256"
        },
        {
          "internalType": "string",
          "name": "proofURI",
          "type": "string"
        },
        {
          "internalType": "string",
          "name": "freelancerResponse",
          "type": "string"
        },
        {
          "internalType": "uint256",
          "name": "approvalCount",
          "type": "uint256"
        },
        {
          "internalType": "uint256",
          "name": "submissionVersion",
          "type": "uint256"
        },
        {
          "internalType": "enum MilestoneEscrow.MilestoneStatus",
          "name": "status",
          "type": "uint8"
        }
      ],
      "stateMutability": "view",
      "type": "function"
    },
    {
      "inputs": [],
      "name": "getMilestoneCount",
      "outputs": [
        {
          "internalType": "uint256",
          "name": "",
          "type": "uint256"
        }
      ],
      "stateMutability": "view",
      "type": "function"
    },
    {
      "inputs": [
        {
          "internalType": "uint256",
          "name": "milestoneId",
          "type": "uint256"
        },
        {
          "internalType": "address",
          "name": "approver",
          "type": "address"
        }
      ],
      "name": "hasApprovedCurrentSubmission",
      "outputs": [
        {
          "internalType": "bool",
          "name": "",
          "type": "bool"
        }
      ],
      "stateMutability": "view",
      "type": "function"
    },
    {
      "inputs": [
        {
          "internalType": "address",
          "name": "",
          "type": "address"
        }
      ],
      "name": "isApprover",
      "outputs": [
        {
          "internalType": "bool",
          "name": "",
          "type": "bool"
        }
      ],
      "stateMutability": "view",
      "type": "function"
    },
    {
      "inputs": [
        {
          "internalType": "uint256",
          "name": "milestoneId",
          "type": "uint256"
        },
        {
          "internalType": "string",
          "name": "reason",
          "type": "string"
        }
      ],
      "name": "raiseDispute",
      "outputs": [],
      "stateMutability": "nonpayable",
      "type": "function"
    },
    {
      "inputs": [
        {
          "internalType": "uint256",
          "name": "milestoneId",
          "type": "uint256"
        }
      ],
      "name": "refundDisputedMilestone",
      "outputs": [],
      "stateMutability": "nonpayable",
      "type": "function"
    },
    {
      "inputs": [
        {
          "internalType": "uint256",
          "name": "milestoneId",
          "type": "uint256"
        },
        {
          "internalType": "string",
          "name": "response",
          "type": "string"
        }
      ],
      "name": "respondToDispute",
      "outputs": [],
      "stateMutability": "nonpayable",
      "type": "function"
    },
    {
      "inputs": [
        {
          "internalType": "uint256",
          "name": "milestoneId",
          "type": "uint256"
        },
        {
          "internalType": "string",
          "name": "newProofURI",
          "type": "string"
        },
        {
          "internalType": "string",
          "name": "response",
          "type": "string"
        }
      ],
      "name": "resubmitMilestone",
      "outputs": [],
      "stateMutability": "nonpayable",
      "type": "function"
    },
    {
      "inputs": [
        {
          "internalType": "uint256",
          "name": "milestoneId",
          "type": "uint256"
        },
        {
          "internalType": "string",
          "name": "proofURI",
          "type": "string"
        }
      ],
      "name": "submitMilestone",
      "outputs": [],
      "stateMutability": "nonpayable",
      "type": "function"
    }
  ],
  "bytecode": "0x61010060405260405162002e3a38038062002e3a833981016040819052620000279162000840565b60017f9b779b17422d0df92223018b32b4d1fa46e071723d6817e2486d003becc55f00556001600160a01b038516620000b15760405162461bcd60e51b815260206004820152602160248201527f467265656c616e6365722063616e6e6f74206265207a65726f206164647265736044820152607360f81b60648201526084015b60405180910390fd5b6000845111620001045760405162461bcd60e51b815260206004820152601e60248201527f4174206c65617374206f6e6520617070726f76657220726571756972656400006044820152606401620000a8565b60008311801562000116575083518311155b620001645760405162461bcd60e51b815260206004820152601a60248201527f496e76616c696420617070726f76616c207468726573686f6c640000000000006044820152606401620000a8565b6000825111620001b75760405162461bcd60e51b815260206004820152601f60248201527f4174206c65617374206f6e65206d696c6573746f6e65207265717569726564006044820152606401620000a8565b80518251146200020a5760405162461bcd60e51b815260206004820152601e60248201527f4d696c6573746f6e652064617461206c656e677468206d69736d6174636800006044820152606401620000a8565b336080526001600160a01b03851660a05260c08390524260e05260005b8451811015620003805760008582815181106200024857620002486200095a565b6020026020010151905060006001600160a01b0316816001600160a01b031603620002b65760405162461bcd60e51b815260206004820152601f60248201527f417070726f7665722063616e6e6f74206265207a65726f2061646472657373006044820152606401620000a8565b6001600160a01b03811660009081526001602052604090205460ff1615620003165760405162461bcd60e51b8152602060048201526012602482015271223ab83634b1b0ba329030b8383937bb32b960711b6044820152606401620000a8565b6001600160a01b031660008181526001602081905260408220805460ff191682179055815480820183559180527f290decd9548b62a8d60345a988386fc84ba6bc95484008f6362f93160ef3e56390910180546001600160a01b0319169092179091550162000227565b506000805b835181101562000590576000838281518110620003a657620003a66200095a565b602002602001015111620004105760405162461bcd60e51b815260206004820152602a60248201527f4d696c6573746f6e6520616d6f756e74206d7573742062652067726561746572604482015269207468616e207a65726f60b01b6064820152608401620000a8565b60036040518060e001604052808684815181106200043257620004326200095a565b602002602001015181526020018584815181106200045457620004546200095a565b60200260200101518152602001604051806020016040528060008152508152602001604051806020016040528060008152508152602001600081526020016000815260200160006004811115620004af57620004af62000970565b90528154600181018355600092835260209092208151919260070201908190620004da908262000a17565b506020820151600182015560408201516002820190620004fb908262000a17565b506060820151600382019062000512908262000a17565b506080820151816004015560a0820151816005015560c08201518160060160006101000a81548160ff0219169083600481111562000554576200055462000970565b021790555050508281815181106200057057620005706200095a565b60200260200101518262000585919062000ae3565b915060010162000385565b50803414620005f45760405162461bcd60e51b815260206004820152602960248201527f4465706f736974206d75737420657175616c20746f74616c206d696c6573746f6044820152681b9948185b5bdd5b9d60ba1b6064820152608401620000a8565b60405134815233907f0939f6f4877faf071412e527bc4c6d0bd65ad077e52b57334f7765265647a7f19060200160405180910390a250505050505062000b0b565b6001600160a01b03811681146200064b57600080fd5b50565b634e487b7160e01b600052604160045260246000fd5b604051601f8201601f191681016001600160401b03811182821017156200068f576200068f6200064e565b604052919050565b60006001600160401b03821115620006b357620006b36200064e565b5060051b60200190565b6000601f83601f840112620006d157600080fd5b82516020620006ea620006e48362000697565b62000664565b82815260059290921b850181019181810190878411156200070a57600080fd5b8287015b84811015620007c35780516001600160401b0380821115620007305760008081fd5b818a0191508a603f830112620007465760008081fd5b85820151818111156200075d576200075d6200064e565b62000770818a01601f1916880162000664565b915080825260408c818386010111156200078a5760008081fd5b60005b82811015620007aa578481018201518482018a015288016200078d565b505060009082018701528452509183019183016200070e565b50979650505050505050565b600082601f830112620007e157600080fd5b81516020620007f4620006e48362000697565b8083825260208201915060208460051b8701019350868411156200081757600080fd5b602086015b848110156200083557805183529183019183016200081c565b509695505050505050565b600080600080600060a086880312156200085957600080fd5b8551620008668162000635565b602087810151919650906001600160401b03808211156200088657600080fd5b818901915089601f8301126200089b57600080fd5b8151620008ac620006e48262000697565b81815260059190911b8301840190848101908c831115620008cc57600080fd5b938501935b82851015620008f7578451620008e78162000635565b82529385019390850190620008d1565b60408c015160608d0151919a50985094505050808311156200091857600080fd5b620009268a848b01620006bd565b945060808901519250808311156200093d57600080fd5b50506200094d88828901620007cf565b9150509295509295909350565b634e487b7160e01b600052603260045260246000fd5b634e487b7160e01b600052602160045260246000fd5b600181811c908216806200099b57607f821691505b602082108103620009bc57634e487b7160e01b600052602260045260246000fd5b50919050565b601f82111562000a12576000816000526020600020601f850160051c81016020861015620009ed5750805b601f850160051c820191505b8181101562000a0e57828155600101620009f9565b5050505b505050565b81516001600160401b0381111562000a335762000a336200064e565b62000a4b8162000a44845462000986565b84620009c2565b602080601f83116001811462000a83576000841562000a6a5750858301515b600019600386901b1c1916600185901b17855562000a0e565b600085815260208120601f198616915b8281101562000ab45788860151825594840194600190910190840162000a93565b508582101562000ad35787850151600019600388901b60f8161c191681555b5050505050600190811b01905550565b8082018082111562000b0557634e487b7160e01b600052601160045260246000fd5b92915050565b60805160a05160c05160e0516122b662000b846000396000610304015260008181610288015261161a0152600081816102ca015281816109fd01528181610ea6015281816111e601528181611a310152611ad501526000818161012b015281816116ee0152818161183c01526118df01526122b66000f3fe608060405234801561001057600080fd5b50600436106101215760003560e01c80636d218e48116100ad578063a37dda2c11610071578063a37dda2c146102c5578063c438b40f146102ec578063cf09e0d0146102ff578063d32cbb3d14610326578063e8016b921461033957600080fd5b80636d218e481461024a5780636f9fb98a1461027d5780637d0eef6114610283578063857dbac9146102aa5780638f4cf247146102bd57600080fd5b80634412395d116100f45780634412395d146101d5578063476a119b146101fa5780635aef573c1461020f5780636a3bb509146102225780636cb3e8ef1461023557600080fd5b8063109e94cf1461012657806310df1eac1461016a5780632066d4e61461018e5780632442e1cb146101af575b600080fd5b61014d7f000000000000000000000000000000000000000000000000000000000000000081565b6040516001600160a01b0390911681526020015b60405180910390f35b61017d610178366004611b6f565b61034c565b604051610161959493929190611bd7565b6101a161019c366004611c22565b610559565b604051908152602001610161565b6101c26101bd366004611c22565b610597565b6040516101619796959493929190611c51565b6101e86101e3366004611c22565b6107d9565b60405161016196959493929190611ccf565b61020d610208366004611d6c565b6109f2565b005b61020d61021d366004611d6c565b610bd6565b61020d610230366004611db8565b610e9b565b61023d611179565b6040516101619190611e32565b61026d610258366004611e9b565b60016020526000908152604090205460ff1681565b6040519015158152602001610161565b476101a1565b6101a17f000000000000000000000000000000000000000000000000000000000000000081565b61020d6102b8366004611d6c565b6111db565b6003546101a1565b61014d7f000000000000000000000000000000000000000000000000000000000000000081565b61020d6102fa366004611c22565b611409565b6101a17f000000000000000000000000000000000000000000000000000000000000000081565b61026d610334366004611ebd565b611668565b61020d610347366004611c22565b6116e3565b60006060806000808660038054905081106103825760405162461bcd60e51b815260040161037990611ee9565b60405180910390fd5b60008881526004602052604090205487106103d15760405162461bcd60e51b815260206004820152600f60248201526e496e76616c6964206469737075746560881b6044820152606401610379565b60008881526004602052604081208054899081106103f1576103f1611f14565b600091825260209091206005909102018054600382015460048301546001840180549495506001600160a01b0390931693600286019260ff169190849061043790611f2a565b80601f016020809104026020016040519081016040528092919081815260200182805461046390611f2a565b80156104b05780601f10610485576101008083540402835291602001916104b0565b820191906000526020600020905b81548152906001019060200180831161049357829003601f168201915b505050505093508280546104c390611f2a565b80601f01602080910402602001604051908101604052809291908181526020018280546104ef90611f2a565b801561053c5780601f106105115761010080835404028352916020019161053c565b820191906000526020600020905b81548152906001019060200180831161051f57829003601f168201915b505050505092509650965096509650965050509295509295909350565b6003546000908290811061057f5760405162461bcd60e51b815260040161037990611ee9565b60008381526004602052604090205491505b50919050565b6060600060608060008060008760038054905081106105c85760405162461bcd60e51b815260040161037990611ee9565b600060038a815481106105dd576105dd611f14565b906000526020600020906007020190508060000181600101548260020183600301846004015485600501548660060160009054906101000a900460ff1686805461062690611f2a565b80601f016020809104026020016040519081016040528092919081815260200182805461065290611f2a565b801561069f5780601f106106745761010080835404028352916020019161069f565b820191906000526020600020905b81548152906001019060200180831161068257829003601f168201915b505050505096508480546106b290611f2a565b80601f01602080910402602001604051908101604052809291908181526020018280546106de90611f2a565b801561072b5780601f106107005761010080835404028352916020019161072b565b820191906000526020600020905b81548152906001019060200180831161070e57829003601f168201915b5050505050945083805461073e90611f2a565b80601f016020809104026020016040519081016040528092919081815260200182805461076a90611f2a565b80156107b75780601f1061078c576101008083540402835291602001916107b7565b820191906000526020600020905b81548152906001019060200180831161079a57829003601f168201915b5050505050935098509850985098509850985098505050919395979092949650565b6000806060806000808660038054905081106108075760405162461bcd60e51b815260040161037990611ee9565b6000888152600460205260408120549081900361084f5750604080516020808201835260008083528351918201909352828152919850889750955093508592508291506109e8565b6000898152600460205260408120610868600184611f74565b8154811061087857610878611f14565b9060005260206000209060050201905060018160000160009054906101000a90046001600160a01b031682600101836002018460030160009054906101000a900460ff1685600401548380546108cd90611f2a565b80601f01602080910402602001604051908101604052809291908181526020018280546108f990611f2a565b80156109465780601f1061091b57610100808354040283529160200191610946565b820191906000526020600020905b81548152906001019060200180831161092957829003601f168201915b5050505050935082805461095990611f2a565b80601f016020809104026020016040519081016040528092919081815260200182805461098590611f2a565b80156109d25780601f106109a7576101008083540402835291602001916109d2565b820191906000526020600020905b8154815290600101906020018083116109b557829003601f168201915b5050505050925098509850985098509850985050505b5091939550919395565b336001600160a01b037f00000000000000000000000000000000000000000000000000000000000000001614610a3a5760405162461bcd60e51b815260040161037990611f8d565b60035483908110610a5d5760405162461bcd60e51b815260040161037990611ee9565b600060038581548110610a7257610a72611f14565b6000918252602082206007909102019150600682015460ff166004811115610a9c57610a9c611c3b565b14610ae95760405162461bcd60e51b815260206004820152601d60248201527f4d696c6573746f6e652063616e6e6f74206265207375626d69747465640000006044820152606401610379565b82610b2b5760405162461bcd60e51b8152602060048201526012602482015271141c9bdbd988155492481c995c5d5a5c995960721b6044820152606401610379565b60028101610b3a84868361202b565b506040805160208101909152600081526003820190610b5990826120ec565b50600081600401819055506001816005016000828254610b7991906121ac565b909155505060068101805460ff19166001179055600581015460405186917f556e3b296d5e8c8bab27684b52ae96905507befd2d188ce6f4453a6717dd9c0091610bc79190889088906121e8565b60405180910390a25050505050565b3360009081526001602052604090205460ff16610c355760405162461bcd60e51b815260206004820152601b60248201527f4f6e6c7920617070726f7665722063616e2063616c6c207468697300000000006044820152606401610379565b60035483908110610c585760405162461bcd60e51b815260040161037990611ee9565b600060038581548110610c6d57610c6d611f14565b6000918252602090912060079091020190506001600682015460ff166004811115610c9a57610c9a611c3b565b14610cf95760405162461bcd60e51b815260206004820152602960248201527f4f6e6c79207375626d6974746564206d696c6573746f6e65732063616e20626560448201526808191a5cdc1d5d195960ba1b6064820152608401610379565b82610d465760405162461bcd60e51b815260206004820152601760248201527f4469737075746520726561736f6e2072657175697265640000000000000000006044820152606401610379565b60068101805460ff19166003179055600085815260046020908152604091829020825160a0810184523381528351601f8801849004840281018401909452868452909290918281019190889088908190840183828082843760009201829052509385525050604080516020808201835284825280860191909152908401839052426060909401939093525083546001808201865594825290829020835160059092020180546001600160a01b0319166001600160a01b03909216919091178155908201519192909190820190610e1c90826120ec565b5060408201516002820190610e3190826120ec565b50606082015160038201805460ff1916911515919091179055608090910151600490910155604051339086907fdee0850f05ae2f0c9f88ec7aa889975983962dbc5c1b07c0afa966dc328519d390610e8c908890889061220b565b60405180910390a35050505050565b336001600160a01b037f00000000000000000000000000000000000000000000000000000000000000001614610ee35760405162461bcd60e51b815260040161037990611f8d565b60035485908110610f065760405162461bcd60e51b815260040161037990611ee9565b83610f485760405162461bcd60e51b8152602060048201526012602482015271141c9bdbd988155492481c995c5d5a5c995960721b6044820152606401610379565b81610f895760405162461bcd60e51b815260206004820152601160248201527014995cdc1bdb9cd9481c995c5d5a5c9959607a1b6044820152606401610379565b600060038781548110610f9e57610f9e611f14565b6000918252602090912060079091020190506003600682015460ff166004811115610fcb57610fcb611c3b565b1461102c5760405162461bcd60e51b815260206004820152602b60248201527f4f6e6c79206469737075746564206d696c6573746f6e65732063616e2062652060448201526a1c995cdd589b5a5d1d195960aa1b6064820152608401610379565b6000878152600460205260409020548061107b5760405162461bcd60e51b815260206004820152601060248201526f139bc8191a5cdc1d5d1948199bdd5b9960821b6044820152606401610379565b6000888152600460205260408120611094600184611f74565b815481106110a4576110a4611f14565b600091825260209091206005909102019050600281016110c586888361202b565b5060038101805460ff19166001179055600283016110e4888a8361202b565b50600383016110f486888361202b565b5060008360040181905550600183600501600082825461111491906121ac565b909155505060068301805460ff1916600117905560058301546040518a917f71cdc1b0481d46931f87eecb0e08caaa5bf30b00e080e5b61dfb525621bc5bda9161116691908c908c908c908c90612227565b60405180910390a2505050505050505050565b606060008054806020026020016040519081016040528092919081815260200182805480156111d157602002820191906000526020600020905b81546001600160a01b031681526001909101906020018083116111b3575b5050505050905090565b336001600160a01b037f000000000000000000000000000000000000000000000000000000000000000016146112235760405162461bcd60e51b815260040161037990611f8d565b600354839081106112465760405162461bcd60e51b815260040161037990611ee9565b816112875760405162461bcd60e51b815260206004820152601160248201527014995cdc1bdb9cd9481c995c5d5a5c9959607a1b6044820152606401610379565b60006003858154811061129c5761129c611f14565b6000918252602090912060079091020190506003600682015460ff1660048111156112c9576112c9611c3b565b146113125760405162461bcd60e51b8152602060048201526019602482015278135a5b195cdd1bdb99481a5cc81b9bdd08191a5cdc1d5d1959603a1b6044820152606401610379565b600085815260046020526040902054806113615760405162461bcd60e51b815260206004820152601060248201526f139bc8191a5cdc1d5d1948199bdd5b9960821b6044820152606401610379565b600086815260046020526040812061137a600184611f74565b8154811061138a5761138a611f14565b600091825260209091206005909102019050600281016113ab86888361202b565b50600383016113bb86888361202b565b50336001600160a01b0316877f564b9c1de600728e9b1c56f343eadf2ccf13f6a01739cd00fc9091f74d3e251988886040516113f892919061220b565b60405180910390a350505050505050565b3360009081526001602052604090205460ff166114685760405162461bcd60e51b815260206004820152601b60248201527f4f6e6c7920617070726f7665722063616e2063616c6c207468697300000000006044820152606401610379565b6003548190811061148b5760405162461bcd60e51b815260040161037990611ee9565b61149361195b565b6000600383815481106114a8576114a8611f14565b6000918252602090912060079091020190506001600682015460ff1660048111156114d5576114d5611c3b565b146115225760405162461bcd60e51b815260206004820152601d60248201527f4d696c6573746f6e65206973206e6f7420756e646572207265766965770000006044820152606401610379565b60058101546000848152600260209081526040808320338452909152902054036115a05760405162461bcd60e51b815260206004820152602960248201527f417070726f76657220616c726561647920617070726f766564207468697320736044820152683ab136b4b9b9b4b7b760b91b6064820152608401610379565b60058101546000848152600260209081526040808320338452909152812091909155600482018054600192906115d79084906121ac565b90915550506004810154604051908152339084907ffe731b8534f38a55c98725a977efe67da793f35fb32ca4d1d947c01d80259bc29060200160405180910390a37f000000000000000000000000000000000000000000000000000000000000000081600401541061164c5761164c83611977565b50611664600160008051602061226183398151915255565b5050565b6003546000908390811061168e5760405162461bcd60e51b815260040161037990611ee9565b6000600385815481106116a3576116a3611f14565b60009182526020808320600560079093020191909101548783526002825260408084206001600160a01b0389168552909252912054149250505092915050565b336001600160a01b037f0000000000000000000000000000000000000000000000000000000000000000161461175b5760405162461bcd60e51b815260206004820152601960248201527f4f6e6c7920636c69656e742063616e2063616c6c2074686973000000000000006044820152606401610379565b6003548190811061177e5760405162461bcd60e51b815260040161037990611ee9565b61178661195b565b60006003838154811061179b5761179b611f14565b6000918252602090912060079091020190506003600682015460ff1660048111156117c8576117c8611c3b565b146118115760405162461bcd60e51b8152602060048201526019602482015278135a5b195cdd1bdb99481a5cc81b9bdd08191a5cdc1d5d1959603a1b6044820152606401610379565b60018101805460068301805460ff191660041790556000918290556040519091906001600160a01b037f0000000000000000000000000000000000000000000000000000000000000000169083908381818185875af1925050503d8060008114611897576040519150601f19603f3d011682016040523d82523d6000602084013e61189c565b606091505b50509050806118dd5760405162461bcd60e51b815260206004820152600d60248201526c1499599d5b990819985a5b1959609a1b6044820152606401610379565b7f00000000000000000000000000000000000000000000000000000000000000006001600160a01b0316857fb4a2b6fb4827e8090802a3670a82dc00890ae360cdba9160b272d457b3bbb8208460405161193991815260200190565b60405180910390a3505050611664600160008051602061226183398151915255565b611963611b3d565b600260008051602061226183398151915255565b60006003828154811061198c5761198c611f14565b6000918252602090912060079091020190506001600682015460ff1660048111156119b9576119b9611c3b565b14611a065760405162461bcd60e51b815260206004820152601860248201527f4d696c6573746f6e652063616e6e6f74206265207061696400000000000000006044820152606401610379565b60018101805460068301805460ff191660021790556000918290556040519091906001600160a01b037f0000000000000000000000000000000000000000000000000000000000000000169083908381818185875af1925050503d8060008114611a8c576040519150601f19603f3d011682016040523d82523d6000602084013e611a91565b606091505b5050905080611ad35760405162461bcd60e51b815260206004820152600e60248201526d14185e5b595b9d0819985a5b195960921b6044820152606401610379565b7f00000000000000000000000000000000000000000000000000000000000000006001600160a01b0316847feb9c1c0ba80d314c5a14871b72dc4f410bdea96f477f1d189bab636b73c6bff484604051611b2f91815260200190565b60405180910390a350505050565b60008051602061226183398151915254600203611b6d57604051633ee5aeb560e01b815260040160405180910390fd5b565b60008060408385031215611b8257600080fd5b50508035926020909101359150565b6000815180845260005b81811015611bb757602081850181015186830182015201611b9b565b506000602082860101526020601f19601f83011685010191505092915050565b6001600160a01b038616815260a060208201819052600090611bfb90830187611b91565b8281036040840152611c0d8187611b91565b94151560608401525050608001529392505050565b600060208284031215611c3457600080fd5b5035919050565b634e487b7160e01b600052602160045260246000fd5b60e081526000611c6460e083018a611b91565b8860208401528281036040840152611c7c8189611b91565b90508281036060840152611c908188611b91565b9150508460808301528360a083015260058310611cbd57634e487b7160e01b600052602160045260246000fd5b8260c083015298975050505050505050565b86151581526001600160a01b038616602082015260c060408201819052600090611cfb90830187611b91565b8281036060840152611d0d8187611b91565b9415156080840152505060a00152949350505050565b60008083601f840112611d3557600080fd5b50813567ffffffffffffffff811115611d4d57600080fd5b602083019150836020828501011115611d6557600080fd5b9250929050565b600080600060408486031215611d8157600080fd5b83359250602084013567ffffffffffffffff811115611d9f57600080fd5b611dab86828701611d23565b9497909650939450505050565b600080600080600060608688031215611dd057600080fd5b85359450602086013567ffffffffffffffff80821115611def57600080fd5b611dfb89838a01611d23565b90965094506040880135915080821115611e1457600080fd5b50611e2188828901611d23565b969995985093965092949392505050565b6020808252825182820181905260009190848201906040850190845b81811015611e735783516001600160a01b031683529284019291840191600101611e4e565b50909695505050505050565b80356001600160a01b0381168114611e9657600080fd5b919050565b600060208284031215611ead57600080fd5b611eb682611e7f565b9392505050565b60008060408385031215611ed057600080fd5b82359150611ee060208401611e7f565b90509250929050565b602080825260119082015270496e76616c6964206d696c6573746f6e6560781b604082015260600190565b634e487b7160e01b600052603260045260246000fd5b600181811c90821680611f3e57607f821691505b60208210810361059157634e487b7160e01b600052602260045260246000fd5b634e487b7160e01b600052601160045260246000fd5b81810381811115611f8757611f87611f5e565b92915050565b6020808252601d908201527f4f6e6c7920667265656c616e6365722063616e2063616c6c2074686973000000604082015260600190565b634e487b7160e01b600052604160045260246000fd5b601f821115612026576000816000526020600020601f850160051c810160208610156120035750805b601f850160051c820191505b818110156120225782815560010161200f565b5050505b505050565b67ffffffffffffffff83111561204357612043611fc4565b612057836120518354611f2a565b83611fda565b6000601f84116001811461208b57600085156120735750838201355b600019600387901b1c1916600186901b1783556120e5565b600083815260209020601f19861690835b828110156120bc578685013582556020948501946001909201910161209c565b50868210156120d95760001960f88860031b161c19848701351681555b505060018560011b0183555b5050505050565b815167ffffffffffffffff81111561210657612106611fc4565b61211a816121148454611f2a565b84611fda565b602080601f83116001811461214f57600084156121375750858301515b600019600386901b1c1916600185901b178555612022565b600085815260208120601f198616915b8281101561217e5788860151825594840194600190910190840161215f565b508582101561219c5787850151600019600388901b60f8161c191681555b5050505050600190811b01905550565b80820180821115611f8757611f87611f5e565b81835281816020850137506000828201602090810191909152601f909101601f19169091010190565b8381526040602082015260006122026040830184866121bf565b95945050505050565b60208152600061221f6020830184866121bf565b949350505050565b8581526060602082015260006122416060830186886121bf565b82810360408401526122548185876121bf565b9897505050505050505056fe9b779b17422d0df92223018b32b4d1fa46e071723d6817e2486d003becc55f00a2646970667358221220da6ab005488c7221343cdd7bb8d72f297dd5000a1b03fcee86dab146f6a709ee64736f6c63430008180033",
  "linkReferences": {},
  "deployedLinkReferences": {}
}